{"abi":[{"type":"constructor","inputs":[],"stateMutability":"nonpayable"},{"type":"function","name":"createMarket","inputs":[{"name":"question","type":"string","internalType":"string"},{"name":"category","type":"string","internalType":"string"},{"name":"metadataUri","type":"string","internalType":"string"},{"name":"resolutionTime","type":"uint256","internalType":"uint256"}],"outputs":[{"name":"marketId","type":"uint256","internalType":"uint256"},{"name":"market","type":"address","internalType":"address"}],"stateMutability":"nonpayable"},{"type":"function","name":"getAllMarkets","inputs":[],"outputs":[{"name":"marketIds","type":"uint256[]","internalType":"uint256[]"}],"stateMutability":"view"},{"type":"function","name":"getMarket","inputs":[{"name":"marketId","type":"uint256","internalType":"uint256"}],"outputs":[{"name":"info","type":"tuple","internalType":"struct IMarketFactory.MarketInfo","components":[{"name":"marketAddress","type":"address","internalType":"address"},{"name":"creator","type":"address","internalType":"address"},{"name":"question","type":"string","internalType":"string"},{"name":"category","type":"string","internalType":"string"},{"name":"metadataUri","type":"string","internalType":"string"},{"name":"resolutionTime","type":"uint256","internalType":"uint256"},{"name":"resolved","type":"bool","internalType":"bool"},{"name":"winningOutcome","type":"uint8","internalType":"uint8"}]}],"stateMutability":"view"},{"type":"function","name":"getMarketCount","inputs":[],"outputs":[{"name":"count","type":"uint256","internalType":"uint256"}],"stateMutability":"view"},{"type":"function","name":"getMarketsByCreator","inputs":[{"name":"creator","type":"address","internalType":"address"}],"outputs":[{"name":"marketIds","type":"uint256[]","internalType":"uint256[]"}],"stateMutability":"view"},{"type":"function","name":"owner","inputs":[],"outputs":[{"name":"","type":"address","internalType":"address"}],"stateMutability":"view"},{"type":"function","name":"renounceOwnership","inputs":[],"outputs":[],"stateMutability":"nonpayable"},{"type":"function","name":"resolveMarket","inputs":[{"name":"marketId","type":"uint256","internalType":"uint256"},{"name":"winningOutcome","type":"uint8","internalType":"uint8"}],"outputs":[],"stateMutability":"nonpayable"},{"type":"function","name":"transferOwnership","inputs":[{"name":"newOwner","type":"address","internalType":"address"}],"outputs":[],"stateMutability":"nonpayable"},{"type":"event","name":"MarketCreated","inputs":[{"name":"marketId","type":"uint256","indexed":true,"internalType":"uint256"},{"name":"market","type":"address","indexed":true,"internalType":"address"},{"name":"creator","type":"address","indexed":true,"internalType":"address"},{"name":"question","type":"string","indexed":false,"internalType":"string"},{"name":"category","type":"string","indexed":false,"internalType":"string"},{"name":"resolutionTime","type":"uint256","indexed":false,"internalType":"uint256"},{"name":"metadataUri","type":"string","indexed":false,"internalType":"string"}],"anonymous":false},{"type":"event","name":"MarketResolved","inputs":[{"name":"marketId","type":"uint256","indexed":true,"internalType":"uint256"},{"name":"market","type":"address","indexed":true,"internalType":"address"},{"name":"winningOutcome","type":"uint8","indexed":false,"internalType":"uint8"}],"anonymous":false},{"type":"event","name":"OwnershipTransferred","inputs":[{"name":"previousOwner","type":"address","indexed":true,"internalType":"address"},{"name":"newOwner","type":"address","indexed":true,"internalType":"address"}],"anonymous":false},{"type":"error","name":"EmptyQuestion","inputs":[]},{"type":"error","name":"InvalidResolutionTime","inputs":[]},{"type":"error","name":"MarketAlreadyResolved","inputs":[]},{"type":"error","name":"MarketNotFound","inputs":[]},{"type":"error","name":"OwnableInvalidOwner","inputs":[{"name":"owner","type":"address","internalType":"address"}]},{"type":"error","name":"OwnableUnauthorizedAccount","inputs":[{"name":"account","type":"address","internalType":"address"}]},{"type":"error","name":"Unauthorized","inputs":[]}],"bytecode":{"object":"0x6080604052348015600f57600080fd5b503380603557604051631e4fbdf760e01b81526000600482015260240160405180910390fd5b603c816041565b506091565b600080546001600160a01b038381166001600160a01b0319831681178455604051919092169283917f8be0079c531659141344cd1fd0a4f28419497f9722a3daafe3b4186f6b6457e09190a35050565b6122c8806100a06000396000f3fe608060405234801561001057600080fd5b50600436106100935760003560e01c8063df55406e11610066578063df55406e14610107578063e99c80bd1461011a578063eb44fdd31461012d578063f2fde38b1461014d578063fd69f3c21461016057600080fd5b8063715018a61461009857806376e00406146100a25780638da5cb5b146100d7578063b0772d0b146100f2575b600080fd5b6100a0610171565b005b6100b56100b0366004610a7a565b610185565b604080519283526001600160a01b039091166020830152015b60405180910390f35b6000546040516001600160a01b0390911681526020016100ce565b6100fa6104b4565b6040516100ce9190610b29565b6100a0610115366004610b6c565b61050c565b6100fa610128366004610ba2565b610651565b61014061013b366004610bd2565b6106bd565b6040516100ce9190610c31565b6100a061015b366004610ba2565b610964565b6001546040519081526020016100ce565b6101796109a7565b61018360006109d4565b565b6000808781036101a857604051630d5003f360e01b815260040160405180910390fd5b4283116101c7576040516282a4d560e51b815260040160405180910390fd5b600180549060006101d783610cf6565b9190505591506000308a8a8a8a886040516101f190610a24565b61020096959493929190610d46565b604051809103906000f08015801561021c573d6000803e3d6000fd5b509050809150604051806101000160405280836001600160a01b03168152602001336001600160a01b031681526020018b8b8080601f016020809104026020016040519081016040528093929190818152602001838380828437600092019190915250505090825250604080516020601f8c018190048102820181019092528a815291810191908b908b9081908401838280828437600092019190915250505090825250604080516020601f8a01819004810282018101909252888152918101919089908990819084018382808284376000920182905250938552505050602080830188905260408084018390526060909301829052868252600280825291839020845181546001600160a01b03199081166001600160a01b039283161783559286015160018301805490941691161790915591830151908201906103619082610e31565b50606082015160038201906103769082610e31565b506080820151600482019061038b9082610e31565b5060a0820151816005015560c08201518160060160006101000a81548160ff02191690831515021790555060e08201518160060160016101000a81548160ff021916908360ff16021790555090505060036000336001600160a01b03166001600160a01b031681526020019081526020016000208390806001815401808255809150506001900390600052602060002001600090919091909150556004839080600181540180825580915050600190039060005260206000200160009091909190915055336001600160a01b0316826001600160a01b0316847f8c0043eb1321ff1b947aded9e1310a28e419c3845d30ead5bca88f145957396e8d8d8d8d8b8e8e60405161049f9796959493929190610ef0565b60405180910390a45097509795505050505050565b6060600480548060200260200160405190810160405280929190818152602001828054801561050257602002820191906000526020600020905b8154815260200190600101908083116104ee575b5050505050905090565b6105146109a7565b600082815260026020526040902080546001600160a01b031661054a576040516307db1be560e41b815260040160405180910390fd5b600681015460ff16156105705760405163aa43cb2d60e01b815260040160405180910390fd5b60018260ff16111561058157600080fd5b60068101805460ff84166101000261ffff199091161760011790558054604051632809c36f60e21b81526001600160a01b039091169063a0270dbc906105d490859060040160ff91909116815260200190565b600060405180830381600087803b1580156105ee57600080fd5b505af1158015610602573d6000803e3d6000fd5b5050825460405160ff861681526001600160a01b0390911692508591507f3c896c4c4260eb502a4ed063162436d7501baaf896e0c3d784536af55d5fe0a79060200160405180910390a3505050565b6001600160a01b0381166000908152600360209081526040918290208054835181840281018401909452808452606093928301828280156106b157602002820191906000526020600020905b81548152602001906001019080831161069d575b50505050509050919050565b61071c60405180610100016040528060006001600160a01b0316815260200160006001600160a01b0316815260200160608152602001606081526020016060815260200160008152602001600015158152602001600060ff1681525090565b60008281526002602081815260409283902083516101008101855281546001600160a01b039081168252600183015416928101929092529182018054919384019161076690610da8565b80601f016020809104026020016040519081016040528092919081815260200182805461079290610da8565b80156107df5780601f106107b4576101008083540402835291602001916107df565b820191906000526020600020905b8154815290600101906020018083116107c257829003601f168201915b505050505081526020016003820180546107f890610da8565b80601f016020809104026020016040519081016040528092919081815260200182805461082490610da8565b80156108715780601f1061084657610100808354040283529160200191610871565b820191906000526020600020905b81548152906001019060200180831161085457829003601f168201915b5050505050815260200160048201805461088a90610da8565b80601f01602080910402602001604051908101604052809291908181526020018280546108b690610da8565b80156109035780601f106108d857610100808354040283529160200191610903565b820191906000526020600020905b8154815290600101906020018083116108e657829003601f168201915b50505091835250506005820154602082015260069091015460ff808216151560408401526101009091041660609091015280519091506001600160a01b031661095f576040516307db1be560e41b815260040160405180910390fd5b919050565b61096c6109a7565b6001600160a01b03811661099b57604051631e4fbdf760e01b8152600060048201526024015b60405180910390fd5b6109a4816109d4565b50565b6000546001600160a01b031633146101835760405163118cdaa760e01b8152336004820152602401610992565b600080546001600160a01b038381166001600160a01b0319831681178455604051919092169283917f8be0079c531659141344cd1fd0a4f28419497f9722a3daafe3b4186f6b6457e09190a35050565b61135280610f4183390190565b60008083601f840112610a4357600080fd5b50813567ffffffffffffffff811115610a5b57600080fd5b602083019150836020828501011115610a7357600080fd5b9250929050565b60008060008060008060006080888a031215610a9557600080fd5b873567ffffffffffffffff811115610aac57600080fd5b610ab88a828b01610a31565b909850965050602088013567ffffffffffffffff811115610ad857600080fd5b610ae48a828b01610a31565b909650945050604088013567ffffffffffffffff811115610b0457600080fd5b610b108a828b01610a31565b989b979a50959894979596606090950135949350505050565b602080825282518282018190526000918401906040840190835b81811015610b61578351835260209384019390920191600101610b43565b509095945050505050565b60008060408385031215610b7f57600080fd5b82359150602083013560ff81168114610b9757600080fd5b809150509250929050565b600060208284031215610bb457600080fd5b81356001600160a01b0381168114610bcb57600080fd5b9392505050565b600060208284031215610be457600080fd5b5035919050565b6000815180845260005b81811015610c1157602081850181015186830182015201610bf5565b506000602082860101526020601f19601f83011685010191505092915050565b60208152610c4b6020820183516001600160a01b03169052565b60006020830151610c6760408401826001600160a01b03169052565b5060408301516101006060840152610c83610120840182610beb565b90506060840151601f19848303016080850152610ca08282610beb565b9150506080840151601f198483030160a0850152610cbe8282610beb565b91505060a084015160c084015260c0840151610cde60e085018215159052565b5060e084015160ff8116610100850152509392505050565b600060018201610d1657634e487b7160e01b600052601160045260246000fd5b5060010190565b81835281816020850137506000828201602090810191909152601f909101601f19169091010190565b6001600160a01b0387168152608060208201819052600090610d6b9083018789610d1d565b8281036040840152610d7e818688610d1d565b915050826060830152979650505050505050565b634e487b7160e01b600052604160045260246000fd5b600181811c90821680610dbc57607f821691505b602082108103610ddc57634e487b7160e01b600052602260045260246000fd5b50919050565b601f821115610e2c57806000526020600020601f840160051c81016020851015610e095750805b601f840160051c820191505b81811015610e295760008155600101610e15565b50505b505050565b815167ffffffffffffffff811115610e4b57610e4b610d92565b610e5f81610e598454610da8565b84610de2565b6020601f821160018114610e935760008315610e7b5750848201515b600019600385901b1c1916600184901b178455610e29565b600084815260208120601f198516915b82811015610ec35787850151825560209485019460019092019101610ea3565b5084821015610ee15786840151600019600387901b60f8161c191681555b50505050600190811b01905550565b608081526000610f0460808301898b610d1d565b8281036020840152610f1781888a610d1d565b90508560408401528281036060840152610f32818587610d1d565b9a995050505050505050505056fe60a060405234801561001057600080fd5b5060405161135238038061135283398101604081905261002f91610131565b600160008190556001600160a01b03851660805261004d848261024a565b50600261005a838261024a565b506003555050683635c9adc5dea00000600581905560065550610308565b634e487b7160e01b600052604160045260246000fd5b600082601f83011261009f57600080fd5b81516001600160401b038111156100b8576100b8610078565b604051601f8201601f19908116603f011681016001600160401b03811182821017156100e6576100e6610078565b6040528181528382016020018510156100fe57600080fd5b60005b8281101561011d57602081860181015183830182015201610101565b506000918101602001919091529392505050565b6000806000806080858703121561014757600080fd5b84516001600160a01b038116811461015e57600080fd5b60208601519094506001600160401b0381111561017a57600080fd5b6101868782880161008e565b604087015190945090506001600160401b038111156101a457600080fd5b6101b08782880161008e565b606096909601519497939650505050565b600181811c908216806101d557607f821691505b6020821081036101f557634e487b7160e01b600052602260045260246000fd5b50919050565b601f82111561024557806000526020600020601f840160051c810160208510156102225750805b601f840160051c820191505b81811015610242576000815560010161022e565b50505b505050565b81516001600160401b0381111561026357610263610078565b6102778161027184546101c1565b846101fb565b6020601f8211600181146102ab57600083156102935750848201515b600019600385901b1c1916600184901b178455610242565b600084815260208120601f198516915b828110156102db57878501518255602094850194600190920191016102bb565b50848210156102f95786840151600019600387901b60f8161c191681555b50505050600190811b01905550565b60805161102861032a6000396000818161037a015261099901526110286000f3fe6080604052600436106101445760003560e01c80639b34ae03116100b6578063d31dbc3e1161006f578063d31dbc3e146103b4578063e2f2cafb146103ca578063ecfb49a3146103e7578063ef430aa6146103fd578063f3e41e9014610412578063f92ab8371461042857600080fd5b80639b34ae03146102e3578063a0270dbc14610302578063a3cb679d14610322578063aaf5eb6814610337578063b401faf114610353578063c45a01551461036857600080fd5b806340db650f1161010857806340db650f14610235578063430468441461025c5780634c5be5741461027157806355097bf11461029b5780635ae01f82146102b85780635db52051146102ce57600080fd5b806316c197391461015057806323341a05146101995780633f0c8d2b146101bb5780633f6fa655146101e95780633fad9ae01461021357600080fd5b3661014b57005b600080fd5b34801561015c57600080fd5b5061017061016b366004610dcd565b610448565b604080518251815260208084015190820152918101511515908201526060015b60405180910390f35b3480156101a557600080fd5b506101ae6104b5565b6040516101909190610e43565b3480156101c757600080fd5b506101db6101d6366004610dcd565b61066d565b604051908152602001610190565b3480156101f557600080fd5b506004546102039060ff1681565b6040519015158152602001610190565b34801561021f57600080fd5b5061022861067e565b6040516101909190610ed5565b34801561024157600080fd5b5061024a600181565b60405160ff9091168152602001610190565b61026f61026a366004610efe565b61070c565b005b34801561027d57600080fd5b506102866108f5565b60408051928352602083019190915201610190565b3480156102a757600080fd5b506101db683635c9adc5dea0000081565b3480156102c457600080fd5b506101db60065481565b3480156102da57600080fd5b5061024a600081565b3480156102ef57600080fd5b5060045461024a90610100900460ff1681565b34801561030e57600080fd5b5061026f61031d366004610efe565b61098e565b34801561032e57600080fd5b50610286610a7e565b34801561034357600080fd5b506101db670de0b6b3a764000081565b34801561035f57600080fd5b5061026f610ae9565b34801561037457600080fd5b5061039c7f000000000000000000000000000000000000000000000000000000000000000081565b6040516001600160a01b039091168152602001610190565b3480156103c057600080fd5b506101db60055481565b3480156103d657600080fd5b506101db68056bc75e2d6310000081565b3480156103f357600080fd5b506101db60075481565b34801561040957600080fd5b50610228610c33565b34801561041e57600080fd5b506101db60035481565b34801561043457600080fd5b506101db610443366004610f19565b610c40565b61046e604051806060016040528060008152602001600081526020016000151581525090565b506001600160a01b03166000908152600860209081526040918290208251606081018452815481526001820154928101929092526002015460ff1615159181019190915290565b610502604051806101000160405280606081526020016060815260200160008152602001600015158152602001600060ff1681526020016000815260200160008152602001600081525090565b6040518061010001604052806001805461051b90610f43565b80601f016020809104026020016040519081016040528092919081815260200182805461054790610f43565b80156105945780601f1061056957610100808354040283529160200191610594565b820191906000526020600020905b81548152906001019060200180831161057757829003601f168201915b50505050508152602001600280546105ab90610f43565b80601f01602080910402602001604051908101604052809291908181526020018280546105d790610f43565b80156106245780601f106105f957610100808354040283529160200191610624565b820191906000526020600020905b81548152906001019060200180831161060757829003601f168201915b5050509183525050600354602082015260045460ff80821615156040840152610100909104166060820152600554608082015260065460a082015260075460c090910152919050565b600061067882610cab565b92915050565b6001805461068b90610f43565b80601f01602080910402602001604051908101604052809291908181526020018280546106b790610f43565b80156107045780601f106106d957610100808354040283529160200191610704565b820191906000526020600020905b8154815290600101906020018083116106e757829003601f168201915b505050505081565b610714610da3565b60045460ff16156107385760405163aa43cb2d60e01b815260040160405180910390fd5b600354421061075a576040516330e2a62560e11b815260040160405180910390fd5b3460000361077b57604051630813eb4360e01b815260040160405180910390fd5b600160ff821611156107a05760405163c74a206d60e01b815260040160405180910390fd5b60006107ac8234610c40565b33600090815260086020526040812091925060ff84166001146107de578282600101546107d99190610f93565b6107eb565b81546107eb908490610f93565b905068056bc75e2d63100000811115610817576040516309032dff60e31b815260040160405180910390fd5b60001960ff85160161085b57828260000160008282546108379190610f93565b9250508190555082600560008282546108509190610f93565b9091555061088e9050565b8282600101600082825461086f9190610f93565b9250508190555082600660008282546108889190610f93565b90915550505b34600760008282546108a09190610f93565b9091555050604080513481526020810185905260ff86169133917f8d3970b91d4f8dbb1a8368398f1ac8bdd7a7fb5682c8360b7396214f65d7e55f910160405180910390a35050506108f26001600055565b50565b600080600060065460055461090a9190610f93565b905080600003610943576109276002670de0b6b3a7640000610fa6565b61093a6002670de0b6b3a7640000610fa6565b92509250509091565b80670de0b6b3a764000060065461095a9190610fc8565b6109649190610fa6565b925080670de0b6b3a764000060055461097d9190610fc8565b6109879190610fa6565b9150509091565b336001600160a01b037f000000000000000000000000000000000000000000000000000000000000000016146109d757604051630636a15760e11b815260040160405180910390fd5b60045460ff16156109fb5760405163aa43cb2d60e01b815260040160405180910390fd5b600160ff82161115610a205760405163c74a206d60e01b815260040160405180910390fd5b6004805460ff8316610100810261ffff19909216919091176001179091556007546040517fcbbe35de088a5a787855818a0fda296aeb95f616e7b99c7dcb0bf96b5697e22b91610a739190815260200190565b60405180910390a250565b600080683635c9adc5dea0000060055411610a9a576000610ab1565b683635c9adc5dea00000600554610ab19190610fdf565b9150683635c9adc5dea0000060065411610acc576000610ae3565b683635c9adc5dea00000600654610ae39190610fdf565b90509091565b610af1610da3565b60045460ff16610b145760405163174b639360e11b815260040160405180910390fd5b336000908152600860205260409020600281015460ff1615610b4957604051630c8d9eab60e31b815260040160405180910390fd5b6000610b5433610cab565b905080600003610b77576040516312d37ee560e31b815260040160405180910390fd5b60028201805460ff19166001179055604051600090339083908381818185875af1925050503d8060008114610bc8576040519150601f19603f3d011682016040523d82523d6000602084013e610bcd565b606091505b5050905080610bef576040516312171d8360e31b815260040160405180910390fd5b60405182815233907fd8138f8a3f377c5259ca548e70e4c2de94f129f5a11036a15b69513cba2b426a9060200160405180910390a2505050610c316001600055565b565b6002805461068b90610f43565b60008060ff8416600114610c5657600654610c5a565b6005545b9050600060ff8516600114610c7157600554610c75565b6006545b9050610c818483610f93565b610c8b8286610fc8565b610c959190610fa6565b925083831015610ca3578392505b505092915050565b60045460009060ff16610cc057506000919050565b6001600160a01b0382166000908152600860205260409020600281015460ff1615610cee5750600092915050565b600454600090610100900460ff16600114610d0d578160010154610d10565b81545b905080600003610d24575060009392505050565b600454600090610100900460ff16600114610d5557683635c9adc5dea00000600654610d509190610fdf565b610d6c565b683635c9adc5dea00000600554610d6c9190610fdf565b905080600003610d8157506000949350505050565b8060075483610d909190610fc8565b610d9a9190610fa6565b95945050505050565b600260005403610dc657604051633ee5aeb560e01b815260040160405180910390fd5b6002600055565b600060208284031215610ddf57600080fd5b81356001600160a01b0381168114610df657600080fd5b9392505050565b6000815180845260005b81811015610e2357602081850181015186830182015201610e07565b506000602082860101526020601f19601f83011685010191505092915050565b60208152600082516101006020840152610e61610120840182610dfd565b90506020840151601f19848303016040850152610e7e8282610dfd565b915050604084015160608401526060840151151560808401526080840151610eab60a085018260ff169052565b5060a084015160c084015260c084015160e084015260e08401516101008401528091505092915050565b602081526000610df66020830184610dfd565b803560ff81168114610ef957600080fd5b919050565b600060208284031215610f1057600080fd5b610df682610ee8565b60008060408385031215610f2c57600080fd5b610f3583610ee8565b946020939093013593505050565b600181811c90821680610f5757607f821691505b602082108103610f7757634e487b7160e01b600052602260045260246000fd5b50919050565b634e487b7160e01b600052601160045260246000fd5b8082018082111561067857610678610f7d565b600082610fc357634e487b7160e01b600052601260045260246000fd5b500490565b808202811582820484141761067857610678610f7d565b8181038181111561067857610678610f7d56fea26469706673582212203502265f39941c580ae9bc83169140c93d856d25283a1f6643e2555085eda6a064736f6c634300081a0033a264697066735822122000d3f4cd55f7b3ede6cb855efe1c62fa2335f06dbc61d22dc00a0e01ffafa8fd64736f6c634300081a0033","linkReferences":{}},"methodIdentifiers":{"createMarket(string,string,string,uint256)":"76e00406","getAllMarkets()":"b0772d0b","getMarket(uint256)":"eb44fdd3","getMarketCount()":"fd69f3c2","getMarketsByCreator(address)":"e99c80bd","owner()":"8da5cb5b","renounceOwnership()":"715018a6","resolveMarket(uint256,uint8)":"df55406e","transferOwnership(address)":"f2fde38b"},"id":60}