{"abi":[{"type":"constructor","inputs":[{"name":"_factory","type":"address","internalType":"address"},{"name":"_question","type":"string","internalType":"string"},{"name":"_category","type":"string","internalType":"string"},{"name":"_resolutionTime","type":"uint256","internalType":"uint256"}],"stateMutability":"nonpayable"},{"type":"receive","stateMutability":"payable"},{"type":"function","name":"INITIAL_LIQUIDITY","inputs":[],"outputs":[{"name":"","type":"uint256","internalType":"uint256"}],"stateMutability":"view"},{"type":"function","name":"MAX_POSITION","inputs":[],"outputs":[{"name":"","type":"uint256","internalType":"uint256"}],"stateMutability":"view"},{"type":"function","name":"OUTCOME_NO","inputs":[],"outputs":[{"name":"","type":"uint8","internalType":"uint8"}],"stateMutability":"view"},{"type":"function","name":"OUTCOME_YES","inputs":[],"outputs":[{"name":"","type":"uint8","internalType":"uint8"}],"stateMutability":"view"},{"type":"function","name":"PRECISION","inputs":[],"outputs":[{"name":"","type":"uint256","internalType":"uint256"}],"stateMutability":"view"},{"type":"function","name":"calculateShares","inputs":[{"name":"outcome","type":"uint8","internalType":"uint8"},{"name":"amount","type":"uint256","internalType":"uint256"}],"outputs":[{"name":"shares","type":"uint256","internalType":"uint256"}],"stateMutability":"view"},{"type":"function","name":"calculateWinnings","inputs":[{"name":"user","type":"address","internalType":"address"}],"outputs":[{"name":"winnings","type":"uint256","internalType":"uint256"}],"stateMutability":"view"},{"type":"function","name":"category","inputs":[],"outputs":[{"name":"","type":"string","internalType":"string"}],"stateMutability":"view"},{"type":"function","name":"claimWinnings","inputs":[],"outputs":[],"stateMutability":"nonpayable"},{"type":"function","name":"factory","inputs":[],"outputs":[{"name":"","type":"address","internalType":"address"}],"stateMutability":"view"},{"type":"function","name":"getMarketInfo","inputs":[],"outputs":[{"name":"info","type":"tuple","internalType":"struct IPredictionMarket.MarketInfo","components":[{"name":"question","type":"string","internalType":"string"},{"name":"category","type":"string","internalType":"string"},{"name":"resolutionTime","type":"uint256","internalType":"uint256"},{"name":"resolved","type":"bool","internalType":"bool"},{"name":"winningOutcome","type":"uint8","internalType":"uint8"},{"name":"totalYesShares","type":"uint256","internalType":"uint256"},{"name":"totalNoShares","type":"uint256","internalType":"uint256"},{"name":"totalPool","type":"uint256","internalType":"uint256"}]}],"stateMutability":"view"},{"type":"function","name":"getOdds","inputs":[],"outputs":[{"name":"yesOdds","type":"uint256","internalType":"uint256"},{"name":"noOdds","type":"uint256","internalType":"uint256"}],"stateMutability":"view"},{"type":"function","name":"getPosition","inputs":[{"name":"user","type":"address","internalType":"address"}],"outputs":[{"name":"position","type":"tuple","internalType":"struct IPredictionMarket.Position","components":[{"name":"yesShares","type":"uint256","internalType":"uint256"},{"name":"noShares","type":"uint256","internalType":"uint256"},{"name":"claimed","type":"bool","internalType":"bool"}]}],"stateMutability":"view"},{"type":"function","name":"getTotalBets","inputs":[],"outputs":[{"name":"yesTotal","type":"uint256","internalType":"uint256"},{"name":"noTotal","type":"uint256","internalType":"uint256"}],"stateMutability":"view"},{"type":"function","name":"placeBet","inputs":[{"name":"outcome","type":"uint8","internalType":"uint8"}],"outputs":[],"stateMutability":"payable"},{"type":"function","name":"question","inputs":[],"outputs":[{"name":"","type":"string","internalType":"string"}],"stateMutability":"view"},{"type":"function","name":"resolutionTime","inputs":[],"outputs":[{"name":"","type":"uint256","internalType":"uint256"}],"stateMutability":"view"},{"type":"function","name":"resolve","inputs":[{"name":"_winningOutcome","type":"uint8","internalType":"uint8"}],"outputs":[],"stateMutability":"nonpayable"},{"type":"function","name":"resolved","inputs":[],"outputs":[{"name":"","type":"bool","internalType":"bool"}],"stateMutability":"view"},{"type":"function","name":"totalNoShares","inputs":[],"outputs":[{"name":"","type":"uint256","internalType":"uint256"}],"stateMutability":"view"},{"type":"function","name":"totalPool","inputs":[],"outputs":[{"name":"","type":"uint256","internalType":"uint256"}],"stateMutability":"view"},{"type":"function","name":"totalYesShares","inputs":[],"outputs":[{"name":"","type":"uint256","internalType":"uint256"}],"stateMutability":"view"},{"type":"function","name":"winningOutcome","inputs":[],"outputs":[{"name":"","type":"uint8","internalType":"uint8"}],"stateMutability":"view"},{"type":"event","name":"BetPlaced","inputs":[{"name":"bettor","type":"address","indexed":true,"internalType":"address"},{"name":"outcome","type":"uint8","indexed":true,"internalType":"uint8"},{"name":"amount","type":"uint256","indexed":false,"internalType":"uint256"},{"name":"shares","type":"uint256","indexed":false,"internalType":"uint256"}],"anonymous":false},{"type":"event","name":"Claimed","inputs":[{"name":"claimer","type":"address","indexed":true,"internalType":"address"},{"name":"amount","type":"uint256","indexed":false,"internalType":"uint256"}],"anonymous":false},{"type":"event","name":"MarketResolved","inputs":[{"name":"winningOutcome","type":"uint8","indexed":true,"internalType":"uint8"},{"name":"totalPayout","type":"uint256","indexed":false,"internalType":"uint256"}],"anonymous":false},{"type":"error","name":"AlreadyClaimed","inputs":[]},{"type":"error","name":"BettingClosed","inputs":[]},{"type":"error","name":"InvalidOutcome","inputs":[]},{"type":"error","name":"MarketAlreadyResolved","inputs":[]},{"type":"error","name":"MarketNotResolved","inputs":[]},{"type":"error","name":"NothingToClaim","inputs":[]},{"type":"error","name":"OnlyFactory","inputs":[]},{"type":"error","name":"PositionLimitExceeded","inputs":[]},{"type":"error","name":"ReentrancyGuardReentrantCall","inputs":[]},{"type":"error","name":"TransferFailed","inputs":[]},{"type":"error","name":"ZeroBetAmount","inputs":[]}],"bytecode":{"object":"0x60a060405234801561000f575f80fd5b506040516112a53803806112a583398101604081905261002e91610113565b60015f8190556001600160a01b03851660805261004b8482610221565b5060026100588382610221565b506003555050683635c9adc5dea000006005819055600655506102db565b634e487b7160e01b5f52604160045260245ffd5b5f82601f830112610099575f80fd5b81516001600160401b038111156100b2576100b2610076565b604051601f8201601f19908116603f011681016001600160401b03811182821017156100e0576100e0610076565b6040528181528382016020018510156100f7575f80fd5b8160208501602083015e5f918101602001919091529392505050565b5f805f8060808587031215610126575f80fd5b84516001600160a01b038116811461013c575f80fd5b60208601519094506001600160401b03811115610157575f80fd5b6101638782880161008a565b604087015190945090506001600160401b03811115610180575f80fd5b61018c8782880161008a565b606096909601519497939650505050565b600181811c908216806101b157607f821691505b6020821081036101cf57634e487b7160e01b5f52602260045260245ffd5b50919050565b601f82111561021c57805f5260205f20601f840160051c810160208510156101fa5750805b601f840160051c820191505b81811015610219575f8155600101610206565b50505b505050565b81516001600160401b0381111561023a5761023a610076565b61024e81610248845461019d565b846101d5565b6020601f821160018114610280575f83156102695750848201515b5f19600385901b1c1916600184901b178455610219565b5f84815260208120601f198516915b828110156102af578785015182556020948501946001909201910161028f565b50848210156102cc57868401515f19600387901b60f8161c191681555b50505050600190811b01905550565b608051610fab6102fa5f395f8181610363015261095d0152610fab5ff3fe60806040526004361061013f575f3560e01c80639b34ae03116100b3578063d31dbc3e1161006d578063d31dbc3e1461039d578063e2f2cafb146103b2578063ecfb49a3146103ce578063ef430aa6146103e3578063f3e41e90146103f7578063f92ab8371461040c575f80fd5b80639b34ae03146102d2578063a0270dbc146102f0578063a3cb679d1461030f578063aaf5eb6814610323578063b401faf11461033e578063c45a015514610352575f80fd5b806340db650f1161010457806340db650f1461022a57806343046844146102505780634c5be5741461026557806355097bf11461028e5780635ae01f82146102aa5780635db52051146102bf575f80fd5b806316c197391461014a57806323341a05146101925780633f0c8d2b146101b35780633f6fa655146101e05780633fad9ae014610209575f80fd5b3661014657005b5f80fd5b348015610155575f80fd5b50610169610164366004610d79565b61042b565b604080518251815260208084015190820152918101511515908201526060015b60405180910390f35b34801561019d575f80fd5b506101a6610494565b6040516101899190610dd4565b3480156101be575f80fd5b506101d26101cd366004610d79565b610642565b604051908152602001610189565b3480156101eb575f80fd5b506004546101f99060ff1681565b6040519015158152602001610189565b348015610214575f80fd5b5061021d610652565b6040516101899190610e65565b348015610235575f80fd5b5061023e600181565b60405160ff9091168152602001610189565b61026361025e366004610e8c565b6106de565b005b348015610270575f80fd5b506102796108bc565b60408051928352602083019190915201610189565b348015610299575f80fd5b506101d2683635c9adc5dea0000081565b3480156102b5575f80fd5b506101d260065481565b3480156102ca575f80fd5b5061023e5f81565b3480156102dd575f80fd5b5060045461023e90610100900460ff1681565b3480156102fb575f80fd5b5061026361030a366004610e8c565b610952565b34801561031a575f80fd5b50610279610a42565b34801561032e575f80fd5b506101d2670de0b6b3a764000081565b348015610349575f80fd5b50610263610aaa565b34801561035d575f80fd5b506103857f000000000000000000000000000000000000000000000000000000000000000081565b6040516001600160a01b039091168152602001610189565b3480156103a8575f80fd5b506101d260055481565b3480156103bd575f80fd5b506101d268056bc75e2d6310000081565b3480156103d9575f80fd5b506101d260075481565b3480156103ee575f80fd5b5061021d610bed565b348015610402575f80fd5b506101d260035481565b348015610417575f80fd5b506101d2610426366004610ea5565b610bfa565b61044e60405180606001604052805f81526020015f81526020015f151581525090565b506001600160a01b03165f908152600860209081526040918290208251606081018452815481526001820154928101929092526002015460ff1615159181019190915290565b6104db60405180610100016040528060608152602001606081526020015f81526020015f151581526020015f60ff1681526020015f81526020015f81526020015f81525090565b604051806101000160405280600180546104f490610ecd565b80601f016020809104026020016040519081016040528092919081815260200182805461052090610ecd565b801561056b5780601f106105425761010080835404028352916020019161056b565b820191905f5260205f20905b81548152906001019060200180831161054e57829003601f168201915b505050505081526020016002805461058290610ecd565b80601f01602080910402602001604051908101604052809291908181526020018280546105ae90610ecd565b80156105f95780601f106105d0576101008083540402835291602001916105f9565b820191905f5260205f20905b8154815290600101906020018083116105dc57829003601f168201915b5050509183525050600354602082015260045460ff80821615156040840152610100909104166060820152600554608082015260065460a082015260075460c090910152919050565b5f61064c82610c63565b92915050565b6001805461065f90610ecd565b80601f016020809104026020016040519081016040528092919081815260200182805461068b90610ecd565b80156106d65780601f106106ad576101008083540402835291602001916106d6565b820191905f5260205f20905b8154815290600101906020018083116106b957829003601f168201915b505050505081565b6106e6610d51565b60045460ff161561070a5760405163aa43cb2d60e01b815260040160405180910390fd5b600354421061072c576040516330e2a62560e11b815260040160405180910390fd5b345f0361074c57604051630813eb4360e01b815260040160405180910390fd5b600160ff821611156107715760405163c74a206d60e01b815260040160405180910390fd5b5f61077c8234610bfa565b335f90815260086020526040812091925060ff84166001146107ad578282600101546107a89190610f19565b6107ba565b81546107ba908490610f19565b905068056bc75e2d631000008111156107e6576040516309032dff60e31b815260040160405180910390fd5b5f1960ff8516016108265782825f015f8282546108039190610f19565b925050819055508260055f82825461081b9190610f19565b909155506108579050565b82826001015f8282546108399190610f19565b925050819055508260065f8282546108519190610f19565b90915550505b3460075f8282546108689190610f19565b9091555050604080513481526020810185905260ff86169133917f8d3970b91d4f8dbb1a8368398f1ac8bdd7a7fb5682c8360b7396214f65d7e55f910160405180910390a35050506108b960015f55565b50565b5f805f6006546005546108cf9190610f19565b9050805f03610907576108eb6002670de0b6b3a7640000610f2c565b6108fe6002670de0b6b3a7640000610f2c565b92509250509091565b80670de0b6b3a764000060065461091e9190610f4b565b6109289190610f2c565b925080670de0b6b3a76400006005546109419190610f4b565b61094b9190610f2c565b9150509091565b336001600160a01b037f0000000000000000000000000000000000000000000000000000000000000000161461099b57604051630636a15760e11b815260040160405180910390fd5b60045460ff16156109bf5760405163aa43cb2d60e01b815260040160405180910390fd5b600160ff821611156109e45760405163c74a206d60e01b815260040160405180910390fd5b6004805460ff8316610100810261ffff19909216919091176001179091556007546040517fcbbe35de088a5a787855818a0fda296aeb95f616e7b99c7dcb0bf96b5697e22b91610a379190815260200190565b60405180910390a250565b5f80683635c9adc5dea0000060055411610a5c575f610a73565b683635c9adc5dea00000600554610a739190610f62565b9150683635c9adc5dea0000060065411610a8d575f610aa4565b683635c9adc5dea00000600654610aa49190610f62565b90509091565b610ab2610d51565b60045460ff16610ad55760405163174b639360e11b815260040160405180910390fd5b335f908152600860205260409020600281015460ff1615610b0957604051630c8d9eab60e31b815260040160405180910390fd5b5f610b1333610c63565b9050805f03610b35576040516312d37ee560e31b815260040160405180910390fd5b60028201805460ff191660011790556040515f90339083908381818185875af1925050503d805f8114610b83576040519150601f19603f3d011682016040523d82523d5f602084013e610b88565b606091505b5050905080610baa576040516312171d8360e31b815260040160405180910390fd5b60405182815233907fd8138f8a3f377c5259ca548e70e4c2de94f129f5a11036a15b69513cba2b426a9060200160405180910390a2505050610beb60015f55565b565b6002805461065f90610ecd565b5f8060ff8416600114610c0f57600654610c13565b6005545b90505f60ff8516600114610c2957600554610c2d565b6006545b9050610c398483610f19565b610c438286610f4b565b610c4d9190610f2c565b925083831015610c5b578392505b505092915050565b6004545f9060ff16610c7657505f919050565b6001600160a01b0382165f908152600860205260409020600281015460ff1615610ca257505f92915050565b6004545f90610100900460ff16600114610cc0578160010154610cc3565b81545b9050805f03610cd557505f9392505050565b6004545f90610100900460ff16600114610d0557683635c9adc5dea00000600654610d009190610f62565b610d1c565b683635c9adc5dea00000600554610d1c9190610f62565b9050805f03610d2f57505f949350505050565b8060075483610d3e9190610f4b565b610d489190610f2c565b95945050505050565b60025f5403610d7357604051633ee5aeb560e01b815260040160405180910390fd5b60025f55565b5f60208284031215610d89575f80fd5b81356001600160a01b0381168114610d9f575f80fd5b9392505050565b5f81518084528060208401602086015e5f602082860101526020601f19601f83011685010191505092915050565b602081525f82516101006020840152610df1610120840182610da6565b90506020840151601f19848303016040850152610e0e8282610da6565b915050604084015160608401526060840151151560808401526080840151610e3b60a085018260ff169052565b5060a084015160c084015260c084015160e084015260e08401516101008401528091505092915050565b602081525f610d9f6020830184610da6565b803560ff81168114610e87575f80fd5b919050565b5f60208284031215610e9c575f80fd5b610d9f82610e77565b5f8060408385031215610eb6575f80fd5b610ebf83610e77565b946020939093013593505050565b600181811c90821680610ee157607f821691505b602082108103610eff57634e487b7160e01b5f52602260045260245ffd5b50919050565b634e487b7160e01b5f52601160045260245ffd5b8082018082111561064c5761064c610f05565b5f82610f4657634e487b7160e01b5f52601260045260245ffd5b500490565b808202811582820484141761064c5761064c610f05565b8181038181111561064c5761064c610f0556fea2646970667358221220c1a3725d08573e45d6550aac108e1d386283e57d2a24299d93f6651d327f7fb664736f6c634300081a0033","linkReferences":{}},"methodIdentifiers":{"INITIAL_LIQUIDITY()":"55097bf1","MAX_POSITION()":"e2f2cafb","OUTCOME_NO()":"5db52051","OUTCOME_YES()":"40db650f","PRECISION()":"aaf5eb68","calculateShares(uint8,uint256)":"f92ab837","calculateWinnings(address)":"3f0c8d2b","category()":"ef430aa6","claimWinnings()":"b401faf1","factory()":"c45a0155","getMarketInfo()":"23341a05","getOdds()":"4c5be574","getPosition(address)":"16c19739","getTotalBets()":"a3cb679d","placeBet(uint8)":"43046844","question()":"3fad9ae0","resolutionTime()":"f3e41e90","resolve(uint8)":"a0270dbc","resolved()":"3f6fa655","totalNoShares()":"5ae01f82","totalPool()":"ecfb49a3","totalYesShares()":"d31dbc3e","winningOutcome()":"9b34ae03"},"id":58}